{
  "_format": "hh-sol-artifact-1",
  "contractName": "NeuralyToken",
  "sourceName": "contracts/NeuralyToken.sol",
  "abi": [
    {
      "inputs": [
        {
          "internalType": "address",
          "name": "initialOwner",
          "type": "address"
        }
      ],
      "stateMutability": "nonpayable",
      "type": "constructor"
    },
    {
      "inputs": [
        {
          "internalType": "address",
          "name": "spender",
          "type": "address"
        },
        {
          "internalType": "uint256",
          "name": "allowance",
          "type": "uint256"
        },
        {
          "internalType": "uint256",
          "name": "needed",
          "type": "uint256"
        }
      ],
      "name": "ERC20InsufficientAllowance",
      "type": "error"
    },
    {
      "inputs": [
        {
          "internalType": "address",
          "name": "sender",
          "type": "address"
        },
        {
          "internalType": "uint256",
          "name": "balance",
          "type": "uint256"
        },
        {
          "internalType": "uint256",
          "name": "needed",
          "type": "uint256"
        }
      ],
      "name": "ERC20InsufficientBalance",
      "type": "error"
    },
    {
      "inputs": [
        {
          "internalType": "address",
          "name": "approver",
          "type": "address"
        }
      ],
      "name": "ERC20InvalidApprover",
      "type": "error"
    },
    {
      "inputs": [
        {
          "internalType": "address",
          "name": "receiver",
          "type": "address"
        }
      ],
      "name": "ERC20InvalidReceiver",
      "type": "error"
    },
    {
      "inputs": [
        {
          "internalType": "address",
          "name": "sender",
          "type": "address"
        }
      ],
      "name": "ERC20InvalidSender",
      "type": "error"
    },
    {
      "inputs": [
        {
          "internalType": "address",
          "name": "spender",
          "type": "address"
        }
      ],
      "name": "ERC20InvalidSpender",
      "type": "error"
    },
    {
      "inputs": [
        {
          "internalType": "address",
          "name": "owner",
          "type": "address"
        }
      ],
      "name": "OwnableInvalidOwner",
      "type": "error"
    },
    {
      "inputs": [
        {
          "internalType": "address",
          "name": "account",
          "type": "address"
        }
      ],
      "name": "OwnableUnauthorizedAccount",
      "type": "error"
    },
    {
      "anonymous": false,
      "inputs": [
        {
          "indexed": true,
          "internalType": "address",
          "name": "owner",
          "type": "address"
        },
        {
          "indexed": true,
          "internalType": "address",
          "name": "spender",
          "type": "address"
        },
        {
          "indexed": false,
          "internalType": "uint256",
          "name": "value",
          "type": "uint256"
        }
      ],
      "name": "Approval",
      "type": "event"
    },
    {
      "anonymous": false,
      "inputs": [
        {
          "indexed": true,
          "internalType": "address",
          "name": "previousOwner",
          "type": "address"
        },
        {
          "indexed": true,
          "internalType": "address",
          "name": "newOwner",
          "type": "address"
        }
      ],
      "name": "OwnershipTransferred",
      "type": "event"
    },
    {
      "anonymous": false,
      "inputs": [
        {
          "indexed": true,
          "internalType": "address",
          "name": "from",
          "type": "address"
        },
        {
          "indexed": true,
          "internalType": "address",
          "name": "to",
          "type": "address"
        },
        {
          "indexed": false,
          "internalType": "uint256",
          "name": "value",
          "type": "uint256"
        }
      ],
      "name": "Transfer",
      "type": "event"
    },
    {
      "inputs": [
        {
          "internalType": "address",
          "name": "owner",
          "type": "address"
        },
        {
          "internalType": "address",
          "name": "spender",
          "type": "address"
        }
      ],
      "name": "allowance",
      "outputs": [
        {
          "internalType": "uint256",
          "name": "",
          "type": "uint256"
        }
      ],
      "stateMutability": "view",
      "type": "function"
    },
    {
      "inputs": [
        {
          "internalType": "address",
          "name": "spender",
          "type": "address"
        },
        {
          "internalType": "uint256",
          "name": "value",
          "type": "uint256"
        }
      ],
      "name": "approve",
      "outputs": [
        {
          "internalType": "bool",
          "name": "",
          "type": "bool"
        }
      ],
      "stateMutability": "nonpayable",
      "type": "function"
    },
    {
      "inputs": [
        {
          "internalType": "address",
          "name": "account",
          "type": "address"
        }
      ],
      "name": "balanceOf",
      "outputs": [
        {
          "internalType": "uint256",
          "name": "",
          "type": "uint256"
        }
      ],
      "stateMutability": "view",
      "type": "function"
    },
    {
      "inputs": [
        {
          "internalType": "uint256",
          "name": "value",
          "type": "uint256"
        }
      ],
      "name": "burn",
      "outputs": [],
      "stateMutability": "nonpayable",
      "type": "function"
    },
    {
      "inputs": [
        {
          "internalType": "address",
          "name": "account",
          "type": "address"
        },
        {
          "internalType": "uint256",
          "name": "value",
          "type": "uint256"
        }
      ],
      "name": "burnFrom",
      "outputs": [],
      "stateMutability": "nonpayable",
      "type": "function"
    },
    {
      "inputs": [],
      "name": "decimals",
      "outputs": [
        {
          "internalType": "uint8",
          "name": "",
          "type": "uint8"
        }
      ],
      "stateMutability": "view",
      "type": "function"
    },
    {
      "inputs": [],
      "name": "name",
      "outputs": [
        {
          "internalType": "string",
          "name": "",
          "type": "string"
        }
      ],
      "stateMutability": "view",
      "type": "function"
    },
    {
      "inputs": [],
      "name": "owner",
      "outputs": [
        {
          "internalType": "address",
          "name": "",
          "type": "address"
        }
      ],
      "stateMutability": "view",
      "type": "function"
    },
    {
      "inputs": [],
      "name": "renounceOwnership",
      "outputs": [],
      "stateMutability": "nonpayable",
      "type": "function"
    },
    {
      "inputs": [],
      "name": "symbol",
      "outputs": [
        {
          "internalType": "string",
          "name": "",
          "type": "string"
        }
      ],
      "stateMutability": "view",
      "type": "function"
    },
    {
      "inputs": [],
      "name": "totalSupply",
      "outputs": [
        {
          "internalType": "uint256",
          "name": "",
          "type": "uint256"
        }
      ],
      "stateMutability": "view",
      "type": "function"
    },
    {
      "inputs": [
        {
          "internalType": "address",
          "name": "to",
          "type": "address"
        },
        {
          "internalType": "uint256",
          "name": "value",
          "type": "uint256"
        }
      ],
      "name": "transfer",
      "outputs": [
        {
          "internalType": "bool",
          "name": "",
          "type": "bool"
        }
      ],
      "stateMutability": "nonpayable",
      "type": "function"
    },
    {
      "inputs": [
        {
          "internalType": "address",
          "name": "from",
          "type": "address"
        },
        {
          "internalType": "address",
          "name": "to",
          "type": "address"
        },
        {
          "internalType": "uint256",
          "name": "value",
          "type": "uint256"
        }
      ],
      "name": "transferFrom",
      "outputs": [
        {
          "internalType": "bool",
          "name": "",
          "type": "bool"
        }
      ],
      "stateMutability": "nonpayable",
      "type": "function"
    },
    {
      "inputs": [
        {
          "internalType": "address",
          "name": "newOwner",
          "type": "address"
        }
      ],
      "name": "transferOwnership",
      "outputs": [],
      "stateMutability": "nonpayable",
      "type": "function"
    }
  ],
  "bytecode": "0x60806040523480156200001157600080fd5b5060405162001e4f38038062001e4f83398181016040528101906200003791906200058f565b806040518060400160405280600781526020017f4e657572616c79000000000000000000000000000000000000000000000000008152506040518060400160405280600781526020017f4e455552414c59000000000000000000000000000000000000000000000000008152508160039081620000b591906200083b565b508060049081620000c791906200083b565b505050600073ffffffffffffffffffffffffffffffffffffffff168173ffffffffffffffffffffffffffffffffffffffff16036200013f5760006040517f1e4fbdf700000000000000000000000000000000000000000000000000000000815260040162000136919062000933565b60405180910390fd5b62000150816200019960201b60201c565b506200019233620001666200025f60201b60201c565b600a62000174919062000ae0565b6402540be40062000186919062000b31565b6200026860201b60201c565b5062000c22565b6000600560009054906101000a900473ffffffffffffffffffffffffffffffffffffffff16905081600560006101000a81548173ffffffffffffffffffffffffffffffffffffffff021916908373ffffffffffffffffffffffffffffffffffffffff1602179055508173ffffffffffffffffffffffffffffffffffffffff168173ffffffffffffffffffffffffffffffffffffffff167f8be0079c531659141344cd1fd0a4f28419497f9722a3daafe3b4186f6b6457e060405160405180910390a35050565b60006012905090565b600073ffffffffffffffffffffffffffffffffffffffff168273ffffffffffffffffffffffffffffffffffffffff1603620002dd5760006040517fec442f05000000000000000000000000000000000000000000000000000000008152600401620002d4919062000933565b60405180910390fd5b620002f160008383620002f560201b60201c565b5050565b600073ffffffffffffffffffffffffffffffffffffffff168373ffffffffffffffffffffffffffffffffffffffff16036200034b5780600260008282546200033e919062000b7c565b9250508190555062000421565b60008060008573ffffffffffffffffffffffffffffffffffffffff1673ffffffffffffffffffffffffffffffffffffffff16815260200190815260200160002054905081811015620003da578381836040517fe450d38c000000000000000000000000000000000000000000000000000000008152600401620003d19392919062000bc8565b60405180910390fd5b8181036000808673ffffffffffffffffffffffffffffffffffffffff1673ffffffffffffffffffffffffffffffffffffffff16815260200190815260200160002081905550505b600073ffffffffffffffffffffffffffffffffffffffff168273ffffffffffffffffffffffffffffffffffffffff16036200046c5780600260008282540392505081905550620004b9565b806000808473ffffffffffffffffffffffffffffffffffffffff1673ffffffffffffffffffffffffffffffffffffffff168152602001908152602001600020600082825401925050819055505b8173ffffffffffffffffffffffffffffffffffffffff168373ffffffffffffffffffffffffffffffffffffffff167fddf252ad1be2c89b69c2b068fc378daa952ba7f163c4a11628f55a4df523b3ef8360405162000518919062000c05565b60405180910390a3505050565b600080fd5b600073ffffffffffffffffffffffffffffffffffffffff82169050919050565b600062000557826200052a565b9050919050565b62000569816200054a565b81146200057557600080fd5b50565b60008151905062000589816200055e565b92915050565b600060208284031215620005a857620005a762000525565b5b6000620005b88482850162000578565b91505092915050565b600081519050919050565b7f4e487b7100000000000000000000000000000000000000000000000000000000600052604160045260246000fd5b7f4e487b7100000000000000000000000000000000000000000000000000000000600052602260045260246000fd5b600060028204905060018216806200064357607f821691505b602082108103620006595762000658620005fb565b5b50919050565b60008190508160005260206000209050919050565b60006020601f8301049050919050565b600082821b905092915050565b600060088302620006c37fffffffffffffffffffffffffffffffffffffffffffffffffffffffffffffffff8262000684565b620006cf868362000684565b95508019841693508086168417925050509392505050565b6000819050919050565b6000819050919050565b60006200071c620007166200071084620006e7565b620006f1565b620006e7565b9050919050565b6000819050919050565b6200073883620006fb565b62000750620007478262000723565b84845462000691565b825550505050565b600090565b6200076762000758565b620007748184846200072d565b505050565b5b818110156200079c57620007906000826200075d565b6001810190506200077a565b5050565b601f821115620007eb57620007b5816200065f565b620007c08462000674565b81016020851015620007d0578190505b620007e8620007df8562000674565b83018262000779565b50505b505050565b600082821c905092915050565b60006200081060001984600802620007f0565b1980831691505092915050565b60006200082b8383620007fd565b9150826002028217905092915050565b6200084682620005c1565b67ffffffffffffffff811115620008625762000861620005cc565b5b6200086e82546200062a565b6200087b828285620007a0565b600060209050601f831160018114620008b357600084156200089e578287015190505b620008aa85826200081d565b8655506200091a565b601f198416620008c3866200065f565b60005b82811015620008ed57848901518255600182019150602085019450602081019050620008c6565b868310156200090d578489015162000909601f891682620007fd565b8355505b6001600288020188555050505b505050505050565b6200092d816200054a565b82525050565b60006020820190506200094a600083018462000922565b92915050565b7f4e487b7100000000000000000000000000000000000000000000000000000000600052601160045260246000fd5b60008160011c9050919050565b6000808291508390505b6001851115620009de57808604811115620009b657620009b562000950565b5b6001851615620009c65780820291505b8081029050620009d6856200097f565b945062000996565b94509492505050565b600082620009f9576001905062000acc565b8162000a09576000905062000acc565b816001811462000a22576002811462000a2d5762000a63565b600191505062000acc565b60ff84111562000a425762000a4162000950565b5b8360020a91508482111562000a5c5762000a5b62000950565b5b5062000acc565b5060208310610133831016604e8410600b841016171562000a9d5782820a90508381111562000a975762000a9662000950565b5b62000acc565b62000aac84848460016200098c565b9250905081840481111562000ac65762000ac562000950565b5b81810290505b9392505050565b600060ff82169050919050565b600062000aed82620006e7565b915062000afa8362000ad3565b925062000b297fffffffffffffffffffffffffffffffffffffffffffffffffffffffffffffffff8484620009e7565b905092915050565b600062000b3e82620006e7565b915062000b4b83620006e7565b925082820262000b5b81620006e7565b9150828204841483151762000b755762000b7462000950565b5b5092915050565b600062000b8982620006e7565b915062000b9683620006e7565b925082820190508082111562000bb15762000bb062000950565b5b92915050565b62000bc281620006e7565b82525050565b600060608201905062000bdf600083018662000922565b62000bee602083018562000bb7565b62000bfd604083018462000bb7565b949350505050565b600060208201905062000c1c600083018462000bb7565b92915050565b61121d8062000c326000396000f3fe608060405234801561001057600080fd5b50600436106100ea5760003560e01c8063715018a61161008c57806395d89b411161006657806395d89b4114610239578063a9059cbb14610257578063dd62ed3e14610287578063f2fde38b146102b7576100ea565b8063715018a6146101f557806379cc6790146101ff5780638da5cb5b1461021b576100ea565b806323b872dd116100c857806323b872dd1461015b578063313ce5671461018b57806342966c68146101a957806370a08231146101c5576100ea565b806306fdde03146100ef578063095ea7b31461010d57806318160ddd1461013d575b600080fd5b6100f76102d3565b6040516101049190610e44565b60405180910390f35b61012760048036038101906101229190610eff565b610365565b6040516101349190610f5a565b60405180910390f35b610145610388565b6040516101529190610f84565b60405180910390f35b61017560048036038101906101709190610f9f565b610392565b6040516101829190610f5a565b60405180910390f35b6101936103c1565b6040516101a0919061100e565b60405180910390f35b6101c360048036038101906101be9190611029565b6103ca565b005b6101df60048036038101906101da9190611056565b6103de565b6040516101ec9190610f84565b60405180910390f35b6101fd610426565b005b61021960048036038101906102149190610eff565b61043a565b005b61022361045a565b6040516102309190611092565b60405180910390f35b610241610484565b60405161024e9190610e44565b60405180910390f35b610271600480360381019061026c9190610eff565b610516565b60405161027e9190610f5a565b60405180910390f35b6102a1600480360381019061029c91906110ad565b610539565b6040516102ae9190610f84565b60405180910390f35b6102d160048036038101906102cc9190611056565b6105c0565b005b6060600380546102e29061111c565b80601f016020809104026020016040519081016040528092919081815260200182805461030e9061111c565b801561035b5780601f106103305761010080835404028352916020019161035b565b820191906000526020600020905b81548152906001019060200180831161033e57829003601f168201915b5050505050905090565b600080610370610646565b905061037d81858561064e565b600191505092915050565b6000600254905090565b60008061039d610646565b90506103aa858285610660565b6103b58585856106f5565b60019150509392505050565b60006012905090565b6103db6103d5610646565b826107e9565b50565b60008060008373ffffffffffffffffffffffffffffffffffffffff1673ffffffffffffffffffffffffffffffffffffffff168152602001908152602001600020549050919050565b61042e61086b565b61043860006108f2565b565b61044c82610446610646565b83610660565b61045682826107e9565b5050565b6000600560009054906101000a900473ffffffffffffffffffffffffffffffffffffffff16905090565b6060600480546104939061111c565b80601f01602080910402602001604051908101604052809291908181526020018280546104bf9061111c565b801561050c5780601f106104e15761010080835404028352916020019161050c565b820191906000526020600020905b8154815290600101906020018083116104ef57829003601f168201915b5050505050905090565b600080610521610646565b905061052e8185856106f5565b600191505092915050565b6000600160008473ffffffffffffffffffffffffffffffffffffffff1673ffffffffffffffffffffffffffffffffffffffff16815260200190815260200160002060008373ffffffffffffffffffffffffffffffffffffffff1673ffffffffffffffffffffffffffffffffffffffff16815260200190815260200160002054905092915050565b6105c861086b565b600073ffffffffffffffffffffffffffffffffffffffff168173ffffffffffffffffffffffffffffffffffffffff160361063a5760006040517f1e4fbdf70000000000000000000000000000000000000000000000000000000081526004016106319190611092565b60405180910390fd5b610643816108f2565b50565b600033905090565b61065b83838360016109b8565b505050565b600061066c8484610539565b90507fffffffffffffffffffffffffffffffffffffffffffffffffffffffffffffffff8110156106ef57818110156106df578281836040517ffb8f41b20000000000000000000000000000000000000000000000000000000081526004016106d69392919061114d565b60405180910390fd5b6106ee848484840360006109b8565b5b50505050565b600073ffffffffffffffffffffffffffffffffffffffff168373ffffffffffffffffffffffffffffffffffffffff16036107675760006040517f96c6fd1e00000000000000000000000000000000000000000000000000000000815260040161075e9190611092565b60405180910390fd5b600073ffffffffffffffffffffffffffffffffffffffff168273ffffffffffffffffffffffffffffffffffffffff16036107d95760006040517fec442f050000000000000000000000000000000000000000000000000000000081526004016107d09190611092565b60405180910390fd5b6107e4838383610b8f565b505050565b600073ffffffffffffffffffffffffffffffffffffffff168273ffffffffffffffffffffffffffffffffffffffff160361085b5760006040517f96c6fd1e0000000000000000000000000000000000000000000000000000000081526004016108529190611092565b60405180910390fd5b61086782600083610b8f565b5050565b610873610646565b73ffffffffffffffffffffffffffffffffffffffff1661089161045a565b73ffffffffffffffffffffffffffffffffffffffff16146108f0576108b4610646565b6040517f118cdaa70000000000000000000000000000000000000000000000000000000081526004016108e79190611092565b60405180910390fd5b565b6000600560009054906101000a900473ffffffffffffffffffffffffffffffffffffffff16905081600560006101000a81548173ffffffffffffffffffffffffffffffffffffffff021916908373ffffffffffffffffffffffffffffffffffffffff1602179055508173ffffffffffffffffffffffffffffffffffffffff168173ffffffffffffffffffffffffffffffffffffffff167f8be0079c531659141344cd1fd0a4f28419497f9722a3daafe3b4186f6b6457e060405160405180910390a35050565b600073ffffffffffffffffffffffffffffffffffffffff168473ffffffffffffffffffffffffffffffffffffffff1603610a2a5760006040517fe602df05000000000000000000000000000000000000000000000000000000008152600401610a219190611092565b60405180910390fd5b600073ffffffffffffffffffffffffffffffffffffffff168373ffffffffffffffffffffffffffffffffffffffff1603610a9c5760006040517f94280d62000000000000000000000000000000000000000000000000000000008152600401610a939190611092565b60405180910390fd5b81600160008673ffffffffffffffffffffffffffffffffffffffff1673ffffffffffffffffffffffffffffffffffffffff16815260200190815260200160002060008573ffffffffffffffffffffffffffffffffffffffff1673ffffffffffffffffffffffffffffffffffffffff168152602001908152602001600020819055508015610b89578273ffffffffffffffffffffffffffffffffffffffff168473ffffffffffffffffffffffffffffffffffffffff167f8c5be1e5ebec7d5bd14f71427d1e84f3dd0314c0f7b2291e5b200ac8c7c3b92584604051610b809190610f84565b60405180910390a35b50505050565b600073ffffffffffffffffffffffffffffffffffffffff168373ffffffffffffffffffffffffffffffffffffffff1603610be1578060026000828254610bd591906111b3565b92505081905550610cb4565b60008060008573ffffffffffffffffffffffffffffffffffffffff1673ffffffffffffffffffffffffffffffffffffffff16815260200190815260200160002054905081811015610c6d578381836040517fe450d38c000000000000000000000000000000000000000000000000000000008152600401610c649392919061114d565b60405180910390fd5b8181036000808673ffffffffffffffffffffffffffffffffffffffff1673ffffffffffffffffffffffffffffffffffffffff16815260200190815260200160002081905550505b600073ffffffffffffffffffffffffffffffffffffffff168273ffffffffffffffffffffffffffffffffffffffff1603610cfd5780600260008282540392505081905550610d4a565b806000808473ffffffffffffffffffffffffffffffffffffffff1673ffffffffffffffffffffffffffffffffffffffff168152602001908152602001600020600082825401925050819055505b8173ffffffffffffffffffffffffffffffffffffffff168373ffffffffffffffffffffffffffffffffffffffff167fddf252ad1be2c89b69c2b068fc378daa952ba7f163c4a11628f55a4df523b3ef83604051610da79190610f84565b60405180910390a3505050565b600081519050919050565b600082825260208201905092915050565b60005b83811015610dee578082015181840152602081019050610dd3565b60008484015250505050565b6000601f19601f8301169050919050565b6000610e1682610db4565b610e208185610dbf565b9350610e30818560208601610dd0565b610e3981610dfa565b840191505092915050565b60006020820190508181036000830152610e5e8184610e0b565b905092915050565b600080fd5b600073ffffffffffffffffffffffffffffffffffffffff82169050919050565b6000610e9682610e6b565b9050919050565b610ea681610e8b565b8114610eb157600080fd5b50565b600081359050610ec381610e9d565b92915050565b6000819050919050565b610edc81610ec9565b8114610ee757600080fd5b50565b600081359050610ef981610ed3565b92915050565b60008060408385031215610f1657610f15610e66565b5b6000610f2485828601610eb4565b9250506020610f3585828601610eea565b9150509250929050565b60008115159050919050565b610f5481610f3f565b82525050565b6000602082019050610f6f6000830184610f4b565b92915050565b610f7e81610ec9565b82525050565b6000602082019050610f996000830184610f75565b92915050565b600080600060608486031215610fb857610fb7610e66565b5b6000610fc686828701610eb4565b9350506020610fd786828701610eb4565b9250506040610fe886828701610eea565b9150509250925092565b600060ff82169050919050565b61100881610ff2565b82525050565b60006020820190506110236000830184610fff565b92915050565b60006020828403121561103f5761103e610e66565b5b600061104d84828501610eea565b91505092915050565b60006020828403121561106c5761106b610e66565b5b600061107a84828501610eb4565b91505092915050565b61108c81610e8b565b82525050565b60006020820190506110a76000830184611083565b92915050565b600080604083850312156110c4576110c3610e66565b5b60006110d285828601610eb4565b92505060206110e385828601610eb4565b9150509250929050565b7f4e487b7100000000000000000000000000000000000000000000000000000000600052602260045260246000fd5b6000600282049050600182168061113457607f821691505b602082108103611147576111466110ed565b5b50919050565b60006060820190506111626000830186611083565b61116f6020830185610f75565b61117c6040830184610f75565b949350505050565b7f4e487b7100000000000000000000000000000000000000000000000000000000600052601160045260246000fd5b60006111be82610ec9565b91506111c983610ec9565b92508282019050808211156111e1576111e0611184565b5b9291505056fea26469706673582212206f05fbbfb62524429905629402da18ca415ca5323842ad1331bbba74828e995364736f6c63430008140033",
  "linkReferences": {},
  "deployedLinkReferences": {}
}