{
  "_format": "hh-sol-artifact-1",
  "contractName": "NeuralyVesting",
  "sourceName": "contracts/NeuralyVesting.sol",
  "abi": [
    {
      "inputs": [
        {
          "internalType": "address",
          "name": "_beneficiaryAddress",
          "type": "address"
        },
        {
          "internalType": "uint256",
          "name": "_startTimestamp",
          "type": "uint256"
        },
        {
          "internalType": "uint256",
          "name": "_cliffSeconds",
          "type": "uint256"
        },
        {
          "internalType": "uint256",
          "name": "_durationSeconds",
          "type": "uint256"
        },
        {
          "internalType": "address",
          "name": "initialOwner",
          "type": "address"
        }
      ],
      "stateMutability": "nonpayable",
      "type": "constructor"
    },
    {
      "inputs": [
        {
          "internalType": "address",
          "name": "owner",
          "type": "address"
        }
      ],
      "name": "OwnableInvalidOwner",
      "type": "error"
    },
    {
      "inputs": [
        {
          "internalType": "address",
          "name": "account",
          "type": "address"
        }
      ],
      "name": "OwnableUnauthorizedAccount",
      "type": "error"
    },
    {
      "inputs": [
        {
          "internalType": "address",
          "name": "token",
          "type": "address"
        }
      ],
      "name": "SafeERC20FailedOperation",
      "type": "error"
    },
    {
      "anonymous": false,
      "inputs": [
        {
          "indexed": true,
          "internalType": "address",
          "name": "previousOwner",
          "type": "address"
        },
        {
          "indexed": true,
          "internalType": "address",
          "name": "newOwner",
          "type": "address"
        }
      ],
      "name": "OwnershipTransferred",
      "type": "event"
    },
    {
      "anonymous": false,
      "inputs": [
        {
          "indexed": true,
          "internalType": "address",
          "name": "token",
          "type": "address"
        },
        {
          "indexed": false,
          "internalType": "uint256",
          "name": "amount",
          "type": "uint256"
        }
      ],
      "name": "TokensReleased",
      "type": "event"
    },
    {
      "inputs": [],
      "name": "beneficiary",
      "outputs": [
        {
          "internalType": "address",
          "name": "",
          "type": "address"
        }
      ],
      "stateMutability": "view",
      "type": "function"
    },
    {
      "inputs": [],
      "name": "cliff",
      "outputs": [
        {
          "internalType": "uint256",
          "name": "",
          "type": "uint256"
        }
      ],
      "stateMutability": "view",
      "type": "function"
    },
    {
      "inputs": [],
      "name": "duration",
      "outputs": [
        {
          "internalType": "uint256",
          "name": "",
          "type": "uint256"
        }
      ],
      "stateMutability": "view",
      "type": "function"
    },
    {
      "inputs": [],
      "name": "owner",
      "outputs": [
        {
          "internalType": "address",
          "name": "",
          "type": "address"
        }
      ],
      "stateMutability": "view",
      "type": "function"
    },
    {
      "inputs": [
        {
          "internalType": "contract IERC20",
          "name": "token",
          "type": "address"
        }
      ],
      "name": "releasableAmount",
      "outputs": [
        {
          "internalType": "uint256",
          "name": "",
          "type": "uint256"
        }
      ],
      "stateMutability": "view",
      "type": "function"
    },
    {
      "inputs": [
        {
          "internalType": "contract IERC20",
          "name": "token",
          "type": "address"
        }
      ],
      "name": "release",
      "outputs": [],
      "stateMutability": "nonpayable",
      "type": "function"
    },
    {
      "inputs": [
        {
          "internalType": "address",
          "name": "",
          "type": "address"
        }
      ],
      "name": "released",
      "outputs": [
        {
          "internalType": "uint256",
          "name": "",
          "type": "uint256"
        }
      ],
      "stateMutability": "view",
      "type": "function"
    },
    {
      "inputs": [],
      "name": "renounceOwnership",
      "outputs": [],
      "stateMutability": "nonpayable",
      "type": "function"
    },
    {
      "inputs": [],
      "name": "start",
      "outputs": [
        {
          "internalType": "uint256",
          "name": "",
          "type": "uint256"
        }
      ],
      "stateMutability": "view",
      "type": "function"
    },
    {
      "inputs": [
        {
          "internalType": "address",
          "name": "newOwner",
          "type": "address"
        }
      ],
      "name": "transferOwnership",
      "outputs": [],
      "stateMutability": "nonpayable",
      "type": "function"
    },
    {
      "inputs": [
        {
          "internalType": "contract IERC20",
          "name": "token",
          "type": "address"
        },
        {
          "internalType": "uint256",
          "name": "timestamp",
          "type": "uint256"
        }
      ],
      "name": "vestedAmount",
      "outputs": [
        {
          "internalType": "uint256",
          "name": "",
          "type": "uint256"
        }
      ],
      "stateMutability": "view",
      "type": "function"
    }
  ],
  "bytecode": "0x6101006040523480156200001257600080fd5b50604051620013f5380380620013f5833981810160405281019062000038919062000397565b80600073ffffffffffffffffffffffffffffffffffffffff168173ffffffffffffffffffffffffffffffffffffffff1603620000ae5760006040517f1e4fbdf7000000000000000000000000000000000000000000000000000000008152600401620000a5919062000430565b60405180910390fd5b620000bf816200022e60201b60201c565b50600073ffffffffffffffffffffffffffffffffffffffff168573ffffffffffffffffffffffffffffffffffffffff160362000132576040517f08c379a00000000000000000000000000000000000000000000000000000000081526004016200012990620004ae565b60405180910390fd5b6000821162000178576040517f08c379a00000000000000000000000000000000000000000000000000000000081526004016200016f9062000520565b60405180910390fd5b42828562000187919062000571565b11620001ca576040517f08c379a0000000000000000000000000000000000000000000000000000000008152600401620001c190620005fc565b60405180910390fd5b8473ffffffffffffffffffffffffffffffffffffffff1660808173ffffffffffffffffffffffffffffffffffffffff16815250508360a08181525050828462000214919062000571565b60e081815250508160c0818152505050505050506200061e565b60008060009054906101000a900473ffffffffffffffffffffffffffffffffffffffff169050816000806101000a81548173ffffffffffffffffffffffffffffffffffffffff021916908373ffffffffffffffffffffffffffffffffffffffff1602179055508173ffffffffffffffffffffffffffffffffffffffff168173ffffffffffffffffffffffffffffffffffffffff167f8be0079c531659141344cd1fd0a4f28419497f9722a3daafe3b4186f6b6457e060405160405180910390a35050565b600080fd5b600073ffffffffffffffffffffffffffffffffffffffff82169050919050565b60006200032482620002f7565b9050919050565b620003368162000317565b81146200034257600080fd5b50565b60008151905062000356816200032b565b92915050565b6000819050919050565b62000371816200035c565b81146200037d57600080fd5b50565b600081519050620003918162000366565b92915050565b600080600080600060a08688031215620003b657620003b5620002f2565b5b6000620003c68882890162000345565b9550506020620003d98882890162000380565b9450506040620003ec8882890162000380565b9350506060620003ff8882890162000380565b9250506080620004128882890162000345565b9150509295509295909350565b6200042a8162000317565b82525050565b60006020820190506200044760008301846200041f565b92915050565b600082825260208201905092915050565b7f42656e6566696369617279206973207a65726f20616464726573730000000000600082015250565b600062000496601b836200044d565b9150620004a3826200045e565b602082019050919050565b60006020820190508181036000830152620004c98162000487565b9050919050565b7f4475726174696f6e206973203000000000000000000000000000000000000000600082015250565b600062000508600d836200044d565b91506200051582620004d0565b602082019050919050565b600060208201905081810360008301526200053b81620004f9565b9050919050565b7f4e487b7100000000000000000000000000000000000000000000000000000000600052601160045260246000fd5b60006200057e826200035c565b91506200058b836200035c565b9250828201905080821115620005a657620005a562000542565b5b92915050565b7f456e642074696d6520696e207061737400000000000000000000000000000000600082015250565b6000620005e46010836200044d565b9150620005f182620005ac565b602082019050919050565b600060208201905081810360008301526200061781620005d5565b9050919050565b60805160a05160c05160e051610d73620006826000396000818161023c0152610386015260008181610218015281816103b801526104130152600081816103d901528181610434015261063b01526000818161052801526105c20152610d736000f3fe608060405234801561001057600080fd5b50600436106100a95760003560e01c806338af3eed1161007157806338af3eed14610166578063715018a6146101845780638da5cb5b1461018e5780639852595c146101ac578063be9a6555146101dc578063f2fde38b146101fa576100a9565b80630fb5a6b4146100ae57806313d033c0146100cc5780631726cbc8146100ea57806317cf53911461011a578063191655871461014a575b600080fd5b6100b6610216565b6040516100c39190610970565b60405180910390f35b6100d461023a565b6040516100e19190610970565b60405180910390f35b61010460048036038101906100ff9190610a00565b61025e565b6040516101119190610970565b60405180910390f35b610134600480360381019061012f9190610a59565b6102bb565b6040516101419190610970565b60405180910390f35b610164600480360381019061015f9190610a00565b61047d565b005b61016e6105c0565b60405161017b9190610aa8565b60405180910390f35b61018c6105e4565b005b6101966105f8565b6040516101a39190610aa8565b60405180910390f35b6101c660048036038101906101c19190610aef565b610621565b6040516101d39190610970565b60405180910390f35b6101e4610639565b6040516101f19190610970565b60405180910390f35b610214600480360381019061020f9190610aef565b61065d565b005b7f000000000000000000000000000000000000000000000000000000000000000081565b7f000000000000000000000000000000000000000000000000000000000000000081565b6000600160008373ffffffffffffffffffffffffffffffffffffffff1673ffffffffffffffffffffffffffffffffffffffff168152602001908152602001600020546102aa83426102bb565b6102b49190610b4b565b9050919050565b600080600160008573ffffffffffffffffffffffffffffffffffffffff1673ffffffffffffffffffffffffffffffffffffffff168152602001908152602001600020548473ffffffffffffffffffffffffffffffffffffffff166370a08231306040518263ffffffff1660e01b81526004016103379190610aa8565b602060405180830381865afa158015610354573d6000803e3d6000fd5b505050506040513d601f19601f820116820180604052508101906103789190610b94565b6103829190610bc1565b90507f00000000000000000000000000000000000000000000000000000000000000008310156103b6576000915050610477565b7f00000000000000000000000000000000000000000000000000000000000000007f00000000000000000000000000000000000000000000000000000000000000006104029190610bc1565b83106104115780915050610477565b7f00000000000000000000000000000000000000000000000000000000000000007f00000000000000000000000000000000000000000000000000000000000000008461045e9190610b4b565b826104699190610bf5565b6104739190610c66565b9150505b92915050565b60006104888261025e565b9050600081116104cd576040517f08c379a00000000000000000000000000000000000000000000000000000000081526004016104c490610cf4565b60405180910390fd5b80600160008473ffffffffffffffffffffffffffffffffffffffff1673ffffffffffffffffffffffffffffffffffffffff168152602001908152602001600020600082825461051c9190610bc1565b9250508190555061056e7f0000000000000000000000000000000000000000000000000000000000000000828473ffffffffffffffffffffffffffffffffffffffff166106e39092919063ffffffff16565b8173ffffffffffffffffffffffffffffffffffffffff167fc7798891864187665ac6dd119286e44ec13f014527aeeb2b8eb3fd413df93179826040516105b49190610970565b60405180910390a25050565b7f000000000000000000000000000000000000000000000000000000000000000081565b6105ec610762565b6105f660006107e9565b565b60008060009054906101000a900473ffffffffffffffffffffffffffffffffffffffff16905090565b60016020528060005260406000206000915090505481565b7f000000000000000000000000000000000000000000000000000000000000000081565b610665610762565b600073ffffffffffffffffffffffffffffffffffffffff168173ffffffffffffffffffffffffffffffffffffffff16036106d75760006040517f1e4fbdf70000000000000000000000000000000000000000000000000000000081526004016106ce9190610aa8565b60405180910390fd5b6106e0816107e9565b50565b61075d838473ffffffffffffffffffffffffffffffffffffffff1663a9059cbb8585604051602401610716929190610d14565b604051602081830303815290604052915060e01b6020820180517bffffffffffffffffffffffffffffffffffffffffffffffffffffffff83818316178352505050506108ad565b505050565b61076a61094f565b73ffffffffffffffffffffffffffffffffffffffff166107886105f8565b73ffffffffffffffffffffffffffffffffffffffff16146107e7576107ab61094f565b6040517f118cdaa70000000000000000000000000000000000000000000000000000000081526004016107de9190610aa8565b60405180910390fd5b565b60008060009054906101000a900473ffffffffffffffffffffffffffffffffffffffff169050816000806101000a81548173ffffffffffffffffffffffffffffffffffffffff021916908373ffffffffffffffffffffffffffffffffffffffff1602179055508173ffffffffffffffffffffffffffffffffffffffff168173ffffffffffffffffffffffffffffffffffffffff167f8be0079c531659141344cd1fd0a4f28419497f9722a3daafe3b4186f6b6457e060405160405180910390a35050565b600080602060008451602086016000885af1806108d0576040513d6000823e3d81fd5b3d9250600051915050600082146108eb576001811415610907565b60008473ffffffffffffffffffffffffffffffffffffffff163b145b1561094957836040517f5274afe70000000000000000000000000000000000000000000000000000000081526004016109409190610aa8565b60405180910390fd5b50505050565b600033905090565b6000819050919050565b61096a81610957565b82525050565b60006020820190506109856000830184610961565b92915050565b600080fd5b600073ffffffffffffffffffffffffffffffffffffffff82169050919050565b60006109bb82610990565b9050919050565b60006109cd826109b0565b9050919050565b6109dd816109c2565b81146109e857600080fd5b50565b6000813590506109fa816109d4565b92915050565b600060208284031215610a1657610a1561098b565b5b6000610a24848285016109eb565b91505092915050565b610a3681610957565b8114610a4157600080fd5b50565b600081359050610a5381610a2d565b92915050565b60008060408385031215610a7057610a6f61098b565b5b6000610a7e858286016109eb565b9250506020610a8f85828601610a44565b9150509250929050565b610aa2816109b0565b82525050565b6000602082019050610abd6000830184610a99565b92915050565b610acc816109b0565b8114610ad757600080fd5b50565b600081359050610ae981610ac3565b92915050565b600060208284031215610b0557610b0461098b565b5b6000610b1384828501610ada565b91505092915050565b7f4e487b7100000000000000000000000000000000000000000000000000000000600052601160045260246000fd5b6000610b5682610957565b9150610b6183610957565b9250828203905081811115610b7957610b78610b1c565b5b92915050565b600081519050610b8e81610a2d565b92915050565b600060208284031215610baa57610ba961098b565b5b6000610bb884828501610b7f565b91505092915050565b6000610bcc82610957565b9150610bd783610957565b9250828201905080821115610bef57610bee610b1c565b5b92915050565b6000610c0082610957565b9150610c0b83610957565b9250828202610c1981610957565b91508282048414831517610c3057610c2f610b1c565b5b5092915050565b7f4e487b7100000000000000000000000000000000000000000000000000000000600052601260045260246000fd5b6000610c7182610957565b9150610c7c83610957565b925082610c8c57610c8b610c37565b5b828204905092915050565b600082825260208201905092915050565b7f4e6f20746f6b656e732064756500000000000000000000000000000000000000600082015250565b6000610cde600d83610c97565b9150610ce982610ca8565b602082019050919050565b60006020820190508181036000830152610d0d81610cd1565b9050919050565b6000604082019050610d296000830185610a99565b610d366020830184610961565b939250505056fea26469706673582212204ccf77e1e7d269775766903197ab1b564be0aeacabc3e9065758c88539b1443f64736f6c63430008140033",
  "linkReferences": {},
  "deployedLinkReferences": {}
}