{
  "_format": "hh-sol-artifact-1",
  "contractName": "NeuralyStaking",
  "sourceName": "contracts/NeuralyStaking.sol",
  "abi": [
    {
      "inputs": [
        {
          "internalType": "address",
          "name": "_token",
          "type": "address"
        },
        {
          "internalType": "address",
          "name": "initialOwner",
          "type": "address"
        }
      ],
      "stateMutability": "nonpayable",
      "type": "constructor"
    },
    {
      "inputs": [
        {
          "internalType": "address",
          "name": "owner",
          "type": "address"
        }
      ],
      "name": "OwnableInvalidOwner",
      "type": "error"
    },
    {
      "inputs": [
        {
          "internalType": "address",
          "name": "account",
          "type": "address"
        }
      ],
      "name": "OwnableUnauthorizedAccount",
      "type": "error"
    },
    {
      "inputs": [],
      "name": "ReentrancyGuardReentrantCall",
      "type": "error"
    },
    {
      "inputs": [
        {
          "internalType": "address",
          "name": "token",
          "type": "address"
        }
      ],
      "name": "SafeERC20FailedOperation",
      "type": "error"
    },
    {
      "anonymous": false,
      "inputs": [
        {
          "indexed": true,
          "internalType": "address",
          "name": "previousOwner",
          "type": "address"
        },
        {
          "indexed": true,
          "internalType": "address",
          "name": "newOwner",
          "type": "address"
        }
      ],
      "name": "OwnershipTransferred",
      "type": "event"
    },
    {
      "anonymous": false,
      "inputs": [
        {
          "indexed": true,
          "internalType": "address",
          "name": "user",
          "type": "address"
        },
        {
          "indexed": false,
          "internalType": "uint256",
          "name": "rewards",
          "type": "uint256"
        }
      ],
      "name": "RewardsClaimed",
      "type": "event"
    },
    {
      "anonymous": false,
      "inputs": [
        {
          "indexed": true,
          "internalType": "address",
          "name": "user",
          "type": "address"
        },
        {
          "indexed": false,
          "internalType": "uint256",
          "name": "amount",
          "type": "uint256"
        }
      ],
      "name": "Staked",
      "type": "event"
    },
    {
      "anonymous": false,
      "inputs": [
        {
          "indexed": true,
          "internalType": "address",
          "name": "user",
          "type": "address"
        },
        {
          "indexed": false,
          "internalType": "uint256",
          "name": "amount",
          "type": "uint256"
        },
        {
          "indexed": false,
          "internalType": "uint256",
          "name": "rewards",
          "type": "uint256"
        }
      ],
      "name": "Withdrawn",
      "type": "event"
    },
    {
      "inputs": [],
      "name": "claimRewards",
      "outputs": [],
      "stateMutability": "nonpayable",
      "type": "function"
    },
    {
      "inputs": [],
      "name": "neuralyToken",
      "outputs": [
        {
          "internalType": "contract IERC20",
          "name": "",
          "type": "address"
        }
      ],
      "stateMutability": "view",
      "type": "function"
    },
    {
      "inputs": [],
      "name": "owner",
      "outputs": [
        {
          "internalType": "address",
          "name": "",
          "type": "address"
        }
      ],
      "stateMutability": "view",
      "type": "function"
    },
    {
      "inputs": [
        {
          "internalType": "address",
          "name": "_user",
          "type": "address"
        }
      ],
      "name": "pendingRewards",
      "outputs": [
        {
          "internalType": "uint256",
          "name": "",
          "type": "uint256"
        }
      ],
      "stateMutability": "view",
      "type": "function"
    },
    {
      "inputs": [],
      "name": "renounceOwnership",
      "outputs": [],
      "stateMutability": "nonpayable",
      "type": "function"
    },
    {
      "inputs": [],
      "name": "rewardRatePerSecond",
      "outputs": [
        {
          "internalType": "uint256",
          "name": "",
          "type": "uint256"
        }
      ],
      "stateMutability": "view",
      "type": "function"
    },
    {
      "inputs": [
        {
          "internalType": "uint256",
          "name": "_ratePerSecond",
          "type": "uint256"
        }
      ],
      "name": "setRewardRate",
      "outputs": [],
      "stateMutability": "nonpayable",
      "type": "function"
    },
    {
      "inputs": [
        {
          "internalType": "uint256",
          "name": "_amount",
          "type": "uint256"
        }
      ],
      "name": "stake",
      "outputs": [],
      "stateMutability": "nonpayable",
      "type": "function"
    },
    {
      "inputs": [
        {
          "internalType": "address",
          "name": "",
          "type": "address"
        }
      ],
      "name": "stakes",
      "outputs": [
        {
          "internalType": "uint256",
          "name": "amount",
          "type": "uint256"
        },
        {
          "internalType": "uint256",
          "name": "rewardDebt",
          "type": "uint256"
        },
        {
          "internalType": "uint256",
          "name": "lastClaimTime",
          "type": "uint256"
        }
      ],
      "stateMutability": "view",
      "type": "function"
    },
    {
      "inputs": [],
      "name": "totalStaked",
      "outputs": [
        {
          "internalType": "uint256",
          "name": "",
          "type": "uint256"
        }
      ],
      "stateMutability": "view",
      "type": "function"
    },
    {
      "inputs": [
        {
          "internalType": "address",
          "name": "newOwner",
          "type": "address"
        }
      ],
      "name": "transferOwnership",
      "outputs": [],
      "stateMutability": "nonpayable",
      "type": "function"
    },
    {
      "inputs": [
        {
          "internalType": "uint256",
          "name": "_amount",
          "type": "uint256"
        }
      ],
      "name": "withdraw",
      "outputs": [],
      "stateMutability": "nonpayable",
      "type": "function"
    }
  ],
  "bytecode": "0x608060405264017a029afc6003553480156200001a57600080fd5b506040516200156d3803806200156d833981810160405281019062000040919062000246565b80600073ffffffffffffffffffffffffffffffffffffffff168173ffffffffffffffffffffffffffffffffffffffff1603620000b65760006040517f1e4fbdf7000000000000000000000000000000000000000000000000000000008152600401620000ad91906200029e565b60405180910390fd5b620000c7816200011860201b60201c565b506001808190555081600260006101000a81548173ffffffffffffffffffffffffffffffffffffffff021916908373ffffffffffffffffffffffffffffffffffffffff1602179055505050620002bb565b60008060009054906101000a900473ffffffffffffffffffffffffffffffffffffffff169050816000806101000a81548173ffffffffffffffffffffffffffffffffffffffff021916908373ffffffffffffffffffffffffffffffffffffffff1602179055508173ffffffffffffffffffffffffffffffffffffffff168173ffffffffffffffffffffffffffffffffffffffff167f8be0079c531659141344cd1fd0a4f28419497f9722a3daafe3b4186f6b6457e060405160405180910390a35050565b600080fd5b600073ffffffffffffffffffffffffffffffffffffffff82169050919050565b60006200020e82620001e1565b9050919050565b620002208162000201565b81146200022c57600080fd5b50565b600081519050620002408162000215565b92915050565b6000806040838503121562000260576200025f620001dc565b5b600062000270858286016200022f565b925050602062000283858286016200022f565b9150509250929050565b620002988162000201565b82525050565b6000602082019050620002b560008301846200028d565b92915050565b6112a280620002cb6000396000f3fe608060405234801561001057600080fd5b50600436106100b45760003560e01c8063715018a611610071578063715018a61461017d578063817b1cd2146101875780638da5cb5b146101a55780639e447fc6146101c3578063a694fc3a146101df578063f2fde38b146101fb576100b4565b806316934fc4146100b95780632627d307146100eb5780632e1a7d4d1461010957806331d7a26214610125578063372500ab146101555780635d773b2c1461015f575b600080fd5b6100d360048036038101906100ce9190610dea565b610217565b6040516100e293929190610e30565b60405180910390f35b6100f3610241565b6040516101009190610ec6565b60405180910390f35b610123600480360381019061011e9190610f0d565b610267565b005b61013f600480360381019061013a9190610dea565b6104c5565b60405161014c9190610f3a565b60405180910390f35b61015d6104d7565b005b6101676104f2565b6040516101749190610f3a565b60405180910390f35b6101856104f8565b005b61018f61050c565b60405161019c9190610f3a565b60405180910390f35b6101ad610512565b6040516101ba9190610f64565b60405180910390f35b6101dd60048036038101906101d89190610f0d565b61053b565b005b6101f960048036038101906101f49190610f0d565b61054d565b005b61021560048036038101906102109190610dea565b6106bb565b005b60046020528060005260406000206000915090508060000154908060010154908060020154905083565b600260009054906101000a900473ffffffffffffffffffffffffffffffffffffffff1681565b61026f610741565b80600460003373ffffffffffffffffffffffffffffffffffffffff1673ffffffffffffffffffffffffffffffffffffffff1681526020019081526020016000206000015410156102f4576040517f08c379a00000000000000000000000000000000000000000000000000000000081526004016102eb90610fdc565b60405180910390fd5b60006102ff33610787565b90506000811115610363576103143382610835565b3373ffffffffffffffffffffffffffffffffffffffff167ffc30cddea38e2bf4d6ea7d3f9ed3b6ad7f176419f4963bd81318067a4aee73fe8260405161035a9190610f3a565b60405180910390a25b42600460003373ffffffffffffffffffffffffffffffffffffffff1673ffffffffffffffffffffffffffffffffffffffff1681526020019081526020016000206002018190555081600460003373ffffffffffffffffffffffffffffffffffffffff1673ffffffffffffffffffffffffffffffffffffffff16815260200190815260200160002060000160008282546103fc919061102b565b925050819055508160056000828254610415919061102b565b925050819055506104693383600260009054906101000a900473ffffffffffffffffffffffffffffffffffffffff1673ffffffffffffffffffffffffffffffffffffffff166109829092919063ffffffff16565b3373ffffffffffffffffffffffffffffffffffffffff167f92ccf450a286a957af52509bc1c9939d1a6a481783e142e41e2499f0bb66ebc683836040516104b192919061105f565b60405180910390a2506104c2610a01565b50565b60006104d082610787565b9050919050565b6104df610741565b6104e833610a0a565b6104f0610a01565b565b60035481565b610500610b10565b61050a6000610b97565b565b60055481565b60008060009054906101000a900473ffffffffffffffffffffffffffffffffffffffff16905090565b610543610b10565b8060038190555050565b610555610741565b60008111610598576040517f08c379a000000000000000000000000000000000000000000000000000000000815260040161058f906110d4565b60405180910390fd5b6105a133610a0a565b6105f0333083600260009054906101000a900473ffffffffffffffffffffffffffffffffffffffff1673ffffffffffffffffffffffffffffffffffffffff16610c5b909392919063ffffffff16565b80600460003373ffffffffffffffffffffffffffffffffffffffff1673ffffffffffffffffffffffffffffffffffffffff168152602001908152602001600020600001600082825461064291906110f4565b92505081905550806005600082825461065b91906110f4565b925050819055503373ffffffffffffffffffffffffffffffffffffffff167f9e71bc8eea02a63969f509818f2dafb9254532904319f9dbda79b67bd34a5f3d826040516106a89190610f3a565b60405180910390a26106b8610a01565b50565b6106c3610b10565b600073ffffffffffffffffffffffffffffffffffffffff168173ffffffffffffffffffffffffffffffffffffffff16036107355760006040517f1e4fbdf700000000000000000000000000000000000000000000000000000000815260040161072c9190610f64565b60405180910390fd5b61073e81610b97565b50565b60026001540361077d576040517f3ee5aeb500000000000000000000000000000000000000000000000000000000815260040160405180910390fd5b6002600181905550565b600080600460008473ffffffffffffffffffffffffffffffffffffffff1673ffffffffffffffffffffffffffffffffffffffff168152602001908152602001600020905060008160000154036107e1576000915050610830565b60008160020154426107f3919061102b565b90506000670de0b6b3a76400006003548385600001546108139190611128565b61081d9190611128565b6108279190611199565b90508093505050505b919050565b6000600260009054906101000a900473ffffffffffffffffffffffffffffffffffffffff1673ffffffffffffffffffffffffffffffffffffffff166370a08231306040518263ffffffff1660e01b81526004016108929190610f64565b602060405180830381865afa1580156108af573d6000803e3d6000fd5b505050506040513d601f19601f820116820180604052508101906108d391906111df565b90508082111561092f5761092a8382600260009054906101000a900473ffffffffffffffffffffffffffffffffffffffff1673ffffffffffffffffffffffffffffffffffffffff166109829092919063ffffffff16565b61097d565b61097c8383600260009054906101000a900473ffffffffffffffffffffffffffffffffffffffff1673ffffffffffffffffffffffffffffffffffffffff166109829092919063ffffffff16565b5b505050565b6109fc838473ffffffffffffffffffffffffffffffffffffffff1663a9059cbb85856040516024016109b592919061120c565b604051602081830303815290604052915060e01b6020820180517bffffffffffffffffffffffffffffffffffffffffffffffffffffffff8381831617835250505050610cdd565b505050565b60018081905550565b6000610a1582610787565b90506000811115610ac45742600460008473ffffffffffffffffffffffffffffffffffffffff1673ffffffffffffffffffffffffffffffffffffffff16815260200190815260200160002060020181905550610a718282610835565b8173ffffffffffffffffffffffffffffffffffffffff167ffc30cddea38e2bf4d6ea7d3f9ed3b6ad7f176419f4963bd81318067a4aee73fe82604051610ab79190610f3a565b60405180910390a2610b0c565b42600460008473ffffffffffffffffffffffffffffffffffffffff1673ffffffffffffffffffffffffffffffffffffffff168152602001908152602001600020600201819055505b5050565b610b18610d7f565b73ffffffffffffffffffffffffffffffffffffffff16610b36610512565b73ffffffffffffffffffffffffffffffffffffffff1614610b9557610b59610d7f565b6040517f118cdaa7000000000000000000000000000000000000000000000000000000008152600401610b8c9190610f64565b60405180910390fd5b565b60008060009054906101000a900473ffffffffffffffffffffffffffffffffffffffff169050816000806101000a81548173ffffffffffffffffffffffffffffffffffffffff021916908373ffffffffffffffffffffffffffffffffffffffff1602179055508173ffffffffffffffffffffffffffffffffffffffff168173ffffffffffffffffffffffffffffffffffffffff167f8be0079c531659141344cd1fd0a4f28419497f9722a3daafe3b4186f6b6457e060405160405180910390a35050565b610cd7848573ffffffffffffffffffffffffffffffffffffffff166323b872dd868686604051602401610c9093929190611235565b604051602081830303815290604052915060e01b6020820180517bffffffffffffffffffffffffffffffffffffffffffffffffffffffff8381831617835250505050610cdd565b50505050565b600080602060008451602086016000885af180610d00576040513d6000823e3d81fd5b3d925060005191505060008214610d1b576001811415610d37565b60008473ffffffffffffffffffffffffffffffffffffffff163b145b15610d7957836040517f5274afe7000000000000000000000000000000000000000000000000000000008152600401610d709190610f64565b60405180910390fd5b50505050565b600033905090565b600080fd5b600073ffffffffffffffffffffffffffffffffffffffff82169050919050565b6000610db782610d8c565b9050919050565b610dc781610dac565b8114610dd257600080fd5b50565b600081359050610de481610dbe565b92915050565b600060208284031215610e0057610dff610d87565b5b6000610e0e84828501610dd5565b91505092915050565b6000819050919050565b610e2a81610e17565b82525050565b6000606082019050610e456000830186610e21565b610e526020830185610e21565b610e5f6040830184610e21565b949350505050565b6000819050919050565b6000610e8c610e87610e8284610d8c565b610e67565b610d8c565b9050919050565b6000610e9e82610e71565b9050919050565b6000610eb082610e93565b9050919050565b610ec081610ea5565b82525050565b6000602082019050610edb6000830184610eb7565b92915050565b610eea81610e17565b8114610ef557600080fd5b50565b600081359050610f0781610ee1565b92915050565b600060208284031215610f2357610f22610d87565b5b6000610f3184828501610ef8565b91505092915050565b6000602082019050610f4f6000830184610e21565b92915050565b610f5e81610dac565b82525050565b6000602082019050610f796000830184610f55565b92915050565b600082825260208201905092915050565b7f496e73756666696369656e74207374616b650000000000000000000000000000600082015250565b6000610fc6601283610f7f565b9150610fd182610f90565b602082019050919050565b60006020820190508181036000830152610ff581610fb9565b9050919050565b7f4e487b7100000000000000000000000000000000000000000000000000000000600052601160045260246000fd5b600061103682610e17565b915061104183610e17565b925082820390508181111561105957611058610ffc565b5b92915050565b60006040820190506110746000830185610e21565b6110816020830184610e21565b9392505050565b7f43616e6e6f74207374616b652030000000000000000000000000000000000000600082015250565b60006110be600e83610f7f565b91506110c982611088565b602082019050919050565b600060208201905081810360008301526110ed816110b1565b9050919050565b60006110ff82610e17565b915061110a83610e17565b925082820190508082111561112257611121610ffc565b5b92915050565b600061113382610e17565b915061113e83610e17565b925082820261114c81610e17565b9150828204841483151761116357611162610ffc565b5b5092915050565b7f4e487b7100000000000000000000000000000000000000000000000000000000600052601260045260246000fd5b60006111a482610e17565b91506111af83610e17565b9250826111bf576111be61116a565b5b828204905092915050565b6000815190506111d981610ee1565b92915050565b6000602082840312156111f5576111f4610d87565b5b6000611203848285016111ca565b91505092915050565b60006040820190506112216000830185610f55565b61122e6020830184610e21565b9392505050565b600060608201905061124a6000830186610f55565b6112576020830185610f55565b6112646040830184610e21565b94935050505056fea2646970667358221220262ecfe8c0955b6f18d0c3497e5918923eb1a8befbd1634f8f3b2a603852eb7564736f6c63430008140033",
  "linkReferences": {},
  "deployedLinkReferences": {}
}