{
  "_format": "hh-sol-artifact-1",
  "contractName": "NeuralyPresale",
  "sourceName": "contracts/NeuralyPresale.sol",
  "abi": [
    {
      "inputs": [
        {
          "internalType": "address",
          "name": "_token",
          "type": "address"
        },
        {
          "internalType": "address",
          "name": "_usdt",
          "type": "address"
        },
        {
          "internalType": "address",
          "name": "initialOwner",
          "type": "address"
        }
      ],
      "stateMutability": "nonpayable",
      "type": "constructor"
    },
    {
      "inputs": [
        {
          "internalType": "address",
          "name": "owner",
          "type": "address"
        }
      ],
      "name": "OwnableInvalidOwner",
      "type": "error"
    },
    {
      "inputs": [
        {
          "internalType": "address",
          "name": "account",
          "type": "address"
        }
      ],
      "name": "OwnableUnauthorizedAccount",
      "type": "error"
    },
    {
      "inputs": [],
      "name": "ReentrancyGuardReentrantCall",
      "type": "error"
    },
    {
      "inputs": [
        {
          "internalType": "address",
          "name": "token",
          "type": "address"
        }
      ],
      "name": "SafeERC20FailedOperation",
      "type": "error"
    },
    {
      "anonymous": false,
      "inputs": [
        {
          "indexed": true,
          "internalType": "address",
          "name": "previousOwner",
          "type": "address"
        },
        {
          "indexed": true,
          "internalType": "address",
          "name": "newOwner",
          "type": "address"
        }
      ],
      "name": "OwnershipTransferred",
      "type": "event"
    },
    {
      "anonymous": false,
      "inputs": [
        {
          "indexed": true,
          "internalType": "address",
          "name": "referrer",
          "type": "address"
        },
        {
          "indexed": true,
          "internalType": "address",
          "name": "buyer",
          "type": "address"
        },
        {
          "indexed": false,
          "internalType": "uint256",
          "name": "amount",
          "type": "uint256"
        },
        {
          "indexed": false,
          "internalType": "uint256",
          "name": "stage",
          "type": "uint256"
        }
      ],
      "name": "ReferralPaid",
      "type": "event"
    },
    {
      "anonymous": false,
      "inputs": [
        {
          "indexed": false,
          "internalType": "uint256",
          "name": "newStage",
          "type": "uint256"
        }
      ],
      "name": "StageChanged",
      "type": "event"
    },
    {
      "anonymous": false,
      "inputs": [
        {
          "indexed": true,
          "internalType": "address",
          "name": "buyer",
          "type": "address"
        },
        {
          "indexed": false,
          "internalType": "uint256",
          "name": "amount",
          "type": "uint256"
        },
        {
          "indexed": false,
          "internalType": "uint256",
          "name": "cost",
          "type": "uint256"
        },
        {
          "indexed": false,
          "internalType": "string",
          "name": "currency",
          "type": "string"
        }
      ],
      "name": "TokensPurchased",
      "type": "event"
    },
    {
      "inputs": [],
      "name": "MIN_BUY_USD",
      "outputs": [
        {
          "internalType": "uint256",
          "name": "",
          "type": "uint256"
        }
      ],
      "stateMutability": "view",
      "type": "function"
    },
    {
      "inputs": [],
      "name": "STAGE_ALLOCATION",
      "outputs": [
        {
          "internalType": "uint256",
          "name": "",
          "type": "uint256"
        }
      ],
      "stateMutability": "view",
      "type": "function"
    },
    {
      "inputs": [
        {
          "internalType": "address",
          "name": "_referrer",
          "type": "address"
        }
      ],
      "name": "buyWithBNB",
      "outputs": [],
      "stateMutability": "payable",
      "type": "function"
    },
    {
      "inputs": [
        {
          "internalType": "uint256",
          "name": "usdtAmount",
          "type": "uint256"
        },
        {
          "internalType": "address",
          "name": "_referrer",
          "type": "address"
        }
      ],
      "name": "buyWithUSDT",
      "outputs": [],
      "stateMutability": "nonpayable",
      "type": "function"
    },
    {
      "inputs": [],
      "name": "claim",
      "outputs": [],
      "stateMutability": "nonpayable",
      "type": "function"
    },
    {
      "inputs": [],
      "name": "claimReferralRewards",
      "outputs": [],
      "stateMutability": "nonpayable",
      "type": "function"
    },
    {
      "inputs": [],
      "name": "claimingEnabled",
      "outputs": [
        {
          "internalType": "bool",
          "name": "",
          "type": "bool"
        }
      ],
      "stateMutability": "view",
      "type": "function"
    },
    {
      "inputs": [],
      "name": "currentStage",
      "outputs": [
        {
          "internalType": "uint256",
          "name": "",
          "type": "uint256"
        }
      ],
      "stateMutability": "view",
      "type": "function"
    },
    {
      "inputs": [],
      "name": "enableClaiming",
      "outputs": [],
      "stateMutability": "nonpayable",
      "type": "function"
    },
    {
      "inputs": [],
      "name": "getCurrentPrice",
      "outputs": [
        {
          "internalType": "uint256",
          "name": "",
          "type": "uint256"
        }
      ],
      "stateMutability": "view",
      "type": "function"
    },
    {
      "inputs": [],
      "name": "getReferralPercent",
      "outputs": [
        {
          "internalType": "uint256",
          "name": "",
          "type": "uint256"
        }
      ],
      "stateMutability": "view",
      "type": "function"
    },
    {
      "inputs": [],
      "name": "launchTime",
      "outputs": [
        {
          "internalType": "uint256",
          "name": "",
          "type": "uint256"
        }
      ],
      "stateMutability": "view",
      "type": "function"
    },
    {
      "inputs": [],
      "name": "owner",
      "outputs": [
        {
          "internalType": "address",
          "name": "",
          "type": "address"
        }
      ],
      "stateMutability": "view",
      "type": "function"
    },
    {
      "inputs": [],
      "name": "presaleActive",
      "outputs": [
        {
          "internalType": "bool",
          "name": "",
          "type": "bool"
        }
      ],
      "stateMutability": "view",
      "type": "function"
    },
    {
      "inputs": [
        {
          "internalType": "address",
          "name": "",
          "type": "address"
        }
      ],
      "name": "purchasedTokens",
      "outputs": [
        {
          "internalType": "uint256",
          "name": "",
          "type": "uint256"
        }
      ],
      "stateMutability": "view",
      "type": "function"
    },
    {
      "inputs": [
        {
          "internalType": "address",
          "name": "",
          "type": "address"
        }
      ],
      "name": "referralEarnings",
      "outputs": [
        {
          "internalType": "uint256",
          "name": "",
          "type": "uint256"
        }
      ],
      "stateMutability": "view",
      "type": "function"
    },
    {
      "inputs": [
        {
          "internalType": "address",
          "name": "",
          "type": "address"
        }
      ],
      "name": "referrer",
      "outputs": [
        {
          "internalType": "address",
          "name": "",
          "type": "address"
        }
      ],
      "stateMutability": "view",
      "type": "function"
    },
    {
      "inputs": [],
      "name": "renounceOwnership",
      "outputs": [],
      "stateMutability": "nonpayable",
      "type": "function"
    },
    {
      "inputs": [
        {
          "internalType": "uint256",
          "name": "_time",
          "type": "uint256"
        }
      ],
      "name": "setLaunchTime",
      "outputs": [],
      "stateMutability": "nonpayable",
      "type": "function"
    },
    {
      "inputs": [
        {
          "internalType": "uint256",
          "name": "",
          "type": "uint256"
        }
      ],
      "name": "stagePrices",
      "outputs": [
        {
          "internalType": "uint256",
          "name": "",
          "type": "uint256"
        }
      ],
      "stateMutability": "view",
      "type": "function"
    },
    {
      "inputs": [],
      "name": "token",
      "outputs": [
        {
          "internalType": "contract IERC20",
          "name": "",
          "type": "address"
        }
      ],
      "stateMutability": "view",
      "type": "function"
    },
    {
      "inputs": [],
      "name": "tokensSoldInCurrentStage",
      "outputs": [
        {
          "internalType": "uint256",
          "name": "",
          "type": "uint256"
        }
      ],
      "stateMutability": "view",
      "type": "function"
    },
    {
      "inputs": [],
      "name": "totalRaisedBNB",
      "outputs": [
        {
          "internalType": "uint256",
          "name": "",
          "type": "uint256"
        }
      ],
      "stateMutability": "view",
      "type": "function"
    },
    {
      "inputs": [],
      "name": "totalRaisedUSDT",
      "outputs": [
        {
          "internalType": "uint256",
          "name": "",
          "type": "uint256"
        }
      ],
      "stateMutability": "view",
      "type": "function"
    },
    {
      "inputs": [],
      "name": "totalTokensSold",
      "outputs": [
        {
          "internalType": "uint256",
          "name": "",
          "type": "uint256"
        }
      ],
      "stateMutability": "view",
      "type": "function"
    },
    {
      "inputs": [
        {
          "internalType": "address",
          "name": "newOwner",
          "type": "address"
        }
      ],
      "name": "transferOwnership",
      "outputs": [],
      "stateMutability": "nonpayable",
      "type": "function"
    },
    {
      "inputs": [],
      "name": "usdt",
      "outputs": [
        {
          "internalType": "contract IERC20",
          "name": "",
          "type": "address"
        }
      ],
      "stateMutability": "view",
      "type": "function"
    },
    {
      "inputs": [],
      "name": "withdrawFunds",
      "outputs": [],
      "stateMutability": "nonpayable",
      "type": "function"
    }
  ],
  "bytecode": "0x6080604052604051806101400160405280656d23ad5f800065ffffffffffff16815260200165763bfbd2200065ffffffffffff168152602001657f544a44c00065ffffffffffff16815260200165886c98b7600065ffffffffffff168152602001659184e72a000065ffffffffffff168152602001659a9d359ca00065ffffffffffff16815260200165a3b5840f400065ffffffffffff16815260200165accdd281e00065ffffffffffff16815260200165b5e620f4800065ffffffffffff16815260200165befe6f67200065ffffffffffff16815250600890600a620000e892919062000330565b506001600a60006101000a81548160ff0219169083151502179055506000600e60006101000a81548160ff0219169083151502179055503480156200012c57600080fd5b506040516200242e3803806200242e833981810160405281019062000152919062000415565b80600073ffffffffffffffffffffffffffffffffffffffff168173ffffffffffffffffffffffffffffffffffffffff1603620001c85760006040517f1e4fbdf7000000000000000000000000000000000000000000000000000000008152600401620001bf919062000482565b60405180910390fd5b620001d9816200026c60201b60201c565b506001808190555082600260006101000a81548173ffffffffffffffffffffffffffffffffffffffff021916908373ffffffffffffffffffffffffffffffffffffffff16021790555081600360006101000a81548173ffffffffffffffffffffffffffffffffffffffff021916908373ffffffffffffffffffffffffffffffffffffffff1602179055505050506200049f565b60008060009054906101000a900473ffffffffffffffffffffffffffffffffffffffff169050816000806101000a81548173ffffffffffffffffffffffffffffffffffffffff021916908373ffffffffffffffffffffffffffffffffffffffff1602179055508173ffffffffffffffffffffffffffffffffffffffff168173ffffffffffffffffffffffffffffffffffffffff167f8be0079c531659141344cd1fd0a4f28419497f9722a3daafe3b4186f6b6457e060405160405180910390a35050565b82805482825590600052602060002090810192821562000379579160200282015b8281111562000378578251829065ffffffffffff1690559160200191906001019062000351565b5b5090506200038891906200038c565b5090565b5b80821115620003a75760008160009055506001016200038d565b5090565b600080fd5b600073ffffffffffffffffffffffffffffffffffffffff82169050919050565b6000620003dd82620003b0565b9050919050565b620003ef81620003d0565b8114620003fb57600080fd5b50565b6000815190506200040f81620003e4565b92915050565b600080600060608486031215620004315762000430620003ab565b5b60006200044186828701620003fe565b93505060206200045486828701620003fe565b92505060406200046786828701620003fe565b9150509250925092565b6200047c81620003d0565b82525050565b600060208201905062000499600083018462000471565b92915050565b611f7f80620004af6000396000f3fe6080604052600436106101b75760003560e01c8063790ca413116100ec5780639e64a10d1161008a578063d095362f11610064578063d095362f14610597578063eb91d37e146105c0578063f2fde38b146105eb578063fc0c546a14610614576101b7565b80639e64a10d146104f45780639ff46e7414610531578063c07b528a1461055a576101b7565b8063888fe9aa116100c6578063888fe9aa146104575780638da5cb5b14610482578063955d0451146104ad57806399b5191d146104d8576101b7565b8063790ca413146103d65780637cd7a12c146104015780637f93f9321461042c576101b7565b80632f48ab7d1161015957806353135ca01161013357806353135ca01461033e5780635bf5d54c1461036957806363b2011714610394578063715018a6146103bf576101b7565b80632f48ab7d146102bf5780634bae6f3f146102ea5780634e71d92d14610327576101b7565b806324600fc31161019557806324600fc3146102155780632675249b1461022c5780632a067da2146102575780632cf003c214610282576101b7565b806305eaab4b146101bc5780630e141a9b146101d35780632081a88c146101fe575b600080fd5b3480156101c857600080fd5b506101d161063f565b005b3480156101df57600080fd5b506101e861080d565b6040516101f591906116e3565b60405180910390f35b34801561020a57600080fd5b50610213610820565b005b34801561022157600080fd5b5061022a610845565b005b34801561023857600080fd5b5061024161098c565b60405161024e9190611717565b60405180910390f35b34801561026357600080fd5b5061026c610992565b6040516102799190611717565b60405180910390f35b34801561028e57600080fd5b506102a960048036038101906102a49190611795565b61099e565b6040516102b691906117d1565b60405180910390f35b3480156102cb57600080fd5b506102d46109d1565b6040516102e1919061184b565b60405180910390f35b3480156102f657600080fd5b50610311600480360381019061030c9190611795565b6109f7565b60405161031e9190611717565b60405180910390f35b34801561033357600080fd5b5061033c610a0f565b005b34801561034a57600080fd5b50610353610b8a565b60405161036091906116e3565b60405180910390f35b34801561037557600080fd5b5061037e610b9d565b60405161038b9190611717565b60405180910390f35b3480156103a057600080fd5b506103a9610ba3565b6040516103b69190611717565b60405180910390f35b3480156103cb57600080fd5b506103d4610ba9565b005b3480156103e257600080fd5b506103eb610bbd565b6040516103f89190611717565b60405180910390f35b34801561040d57600080fd5b50610416610bc3565b6040516104239190611717565b60405180910390f35b34801561043857600080fd5b50610441610bc9565b60405161044e9190611717565b60405180910390f35b34801561046357600080fd5b5061046c610c0f565b6040516104799190611717565b60405180910390f35b34801561048e57600080fd5b50610497610c15565b6040516104a491906117d1565b60405180910390f35b3480156104b957600080fd5b506104c2610c3e565b6040516104cf9190611717565b60405180910390f35b6104f260048036038101906104ed9190611795565b610c4e565b005b34801561050057600080fd5b5061051b60048036038101906105169190611892565b610dd3565b6040516105289190611717565b60405180910390f35b34801561053d57600080fd5b5061055860048036038101906105539190611892565b610df7565b005b34801561056657600080fd5b50610581600480360381019061057c9190611795565b610e09565b60405161058e9190611717565b60405180910390f35b3480156105a357600080fd5b506105be60048036038101906105b991906118bf565b610e21565b005b3480156105cc57600080fd5b506105d5610fc3565b6040516105e29190611717565b60405180910390f35b3480156105f757600080fd5b50610612600480360381019061060d9190611795565b61101d565b005b34801561062057600080fd5b506106296110a3565b604051610636919061184b565b60405180910390f35b6106476110c9565b600e60009054906101000a900460ff16610696576040517f08c379a000000000000000000000000000000000000000000000000000000000815260040161068d9061195c565b60405180910390fd5b62278d00600f546106a791906119ab565b4210156106e9576040517f08c379a00000000000000000000000000000000000000000000000000000000081526004016106e090611a51565b60405180910390fd5b6000600c60003373ffffffffffffffffffffffffffffffffffffffff1673ffffffffffffffffffffffffffffffffffffffff16815260200190815260200160002054905060008111610770576040517f08c379a000000000000000000000000000000000000000000000000000000000815260040161076790611abd565b60405180910390fd5b6000600c60003373ffffffffffffffffffffffffffffffffffffffff1673ffffffffffffffffffffffffffffffffffffffff168152602001908152602001600020819055506108023382600260009054906101000a900473ffffffffffffffffffffffffffffffffffffffff1673ffffffffffffffffffffffffffffffffffffffff1661110f9092919063ffffffff16565b5061080b61118e565b565b600e60009054906101000a900460ff1681565b610828611197565b6001600e60006101000a81548160ff021916908315150217905550565b61084d611197565b610855610c15565b73ffffffffffffffffffffffffffffffffffffffff166108fc479081150290604051600060405180830381858888f1935050505015801561089a573d6000803e3d6000fd5b5061098a6108a6610c15565b600360009054906101000a900473ffffffffffffffffffffffffffffffffffffffff1673ffffffffffffffffffffffffffffffffffffffff166370a08231306040518263ffffffff1660e01b815260040161090191906117d1565b602060405180830381865afa15801561091e573d6000803e3d6000fd5b505050506040513d601f19601f820116820180604052508101906109429190611af2565b600360009054906101000a900473ffffffffffffffffffffffffffffffffffffffff1673ffffffffffffffffffffffffffffffffffffffff1661110f9092919063ffffffff16565b565b60075481565b678ac7230489e8000081565b600d6020528060005260406000206000915054906101000a900473ffffffffffffffffffffffffffffffffffffffff1681565b600360009054906101000a900473ffffffffffffffffffffffffffffffffffffffff1681565b600b6020528060005260406000206000915090505481565b610a176110c9565b600e60009054906101000a900460ff16610a66576040517f08c379a0000000000000000000000000000000000000000000000000000000008152600401610a5d9061195c565b60405180910390fd5b6000600b60003373ffffffffffffffffffffffffffffffffffffffff1673ffffffffffffffffffffffffffffffffffffffff16815260200190815260200160002054905060008111610aed576040517f08c379a0000000000000000000000000000000000000000000000000000000008152600401610ae490611b6b565b60405180910390fd5b6000600b60003373ffffffffffffffffffffffffffffffffffffffff1673ffffffffffffffffffffffffffffffffffffffff16815260200190815260200160002081905550610b7f3382600260009054906101000a900473ffffffffffffffffffffffffffffffffffffffff1673ffffffffffffffffffffffffffffffffffffffff1661110f9092919063ffffffff16565b50610b8861118e565b565b600a60009054906101000a900460ff1681565b60045481565b60055481565b610bb1611197565b610bbb600061121e565b565b600f5481565b60065481565b600060036004541015610bdf57600a9050610c0c565b60066004541015610bf35760079050610c0c565b60096004541015610c075760059050610c0c565b600390505b90565b60095481565b60008060009054906101000a900473ffffffffffffffffffffffffffffffffffffffff16905090565b6b0121836204bc2ce21e00000081565b610c566110c9565b600a60009054906101000a900460ff16610ca5576040517f08c379a0000000000000000000000000000000000000000000000000000000008152600401610c9c90611bd7565b60405180910390fd5b6000682086ac35105260000090506000670de0b6b3a76400008234610cca9190611bf7565b610cd49190611c68565b9050678ac7230489e80000811015610d21576040517f08c379a0000000000000000000000000000000000000000000000000000000008152600401610d1890611ce5565b60405180910390fd5b6000610d2b610fc3565b9050600081670de0b6b3a764000084610d449190611bf7565b610d4e9190611c68565b9050610d5b3382876112e2565b3460066000828254610d6d91906119ab565b925050819055503373ffffffffffffffffffffffffffffffffffffffff167fe8e3aa9086f33aa1d89447fc3a792fafabd987374e660b040e31787d68b5fe068234604051610dbc929190611d51565b60405180910390a250505050610dd061118e565b50565b60088181548110610de357600080fd5b906000526020600020016000915090505481565b610dff611197565b80600f8190555050565b600c6020528060005260406000206000915090505481565b610e296110c9565b600a60009054906101000a900460ff16610e78576040517f08c379a0000000000000000000000000000000000000000000000000000000008152600401610e6f90611bd7565b60405180910390fd5b678ac7230489e80000821015610ec3576040517f08c379a0000000000000000000000000000000000000000000000000000000008152600401610eba90611ce5565b60405180910390fd5b6000610ecd610fc3565b9050600081670de0b6b3a764000085610ee69190611bf7565b610ef09190611c68565b9050610f41333086600360009054906101000a900473ffffffffffffffffffffffffffffffffffffffff1673ffffffffffffffffffffffffffffffffffffffff1661159c909392919063ffffffff16565b610f4c3382856112e2565b8360076000828254610f5e91906119ab565b925050819055503373ffffffffffffffffffffffffffffffffffffffff167fe8e3aa9086f33aa1d89447fc3a792fafabd987374e660b040e31787d68b5fe068286604051610fad929190611dd9565b60405180910390a25050610fbf61118e565b5050565b6000600a60045410610ff6576008600981548110610fe457610fe3611e15565b5b9060005260206000200154905061101a565b60086004548154811061100c5761100b611e15565b5b906000526020600020015490505b90565b611025611197565b600073ffffffffffffffffffffffffffffffffffffffff168173ffffffffffffffffffffffffffffffffffffffff16036110975760006040517f1e4fbdf700000000000000000000000000000000000000000000000000000000815260040161108e91906117d1565b60405180910390fd5b6110a08161121e565b50565b600260009054906101000a900473ffffffffffffffffffffffffffffffffffffffff1681565b600260015403611105576040517f3ee5aeb500000000000000000000000000000000000000000000000000000000815260040160405180910390fd5b6002600181905550565b611189838473ffffffffffffffffffffffffffffffffffffffff1663a9059cbb8585604051602401611142929190611e44565b604051602081830303815290604052915060e01b6020820180517bffffffffffffffffffffffffffffffffffffffffffffffffffffffff838183161783525050505061161e565b505050565b60018081905550565b61119f6116c0565b73ffffffffffffffffffffffffffffffffffffffff166111bd610c15565b73ffffffffffffffffffffffffffffffffffffffff161461121c576111e06116c0565b6040517f118cdaa700000000000000000000000000000000000000000000000000000000815260040161121391906117d1565b60405180910390fd5b565b60008060009054906101000a900473ffffffffffffffffffffffffffffffffffffffff169050816000806101000a81548173ffffffffffffffffffffffffffffffffffffffff021916908373ffffffffffffffffffffffffffffffffffffffff1602179055508173ffffffffffffffffffffffffffffffffffffffff168173ffffffffffffffffffffffffffffffffffffffff167f8be0079c531659141344cd1fd0a4f28419497f9722a3daafe3b4186f6b6457e060405160405180910390a35050565b6b0121836204bc2ce21e000000826009546112fd91906119ab565b11156113b65760006b0121836204bc2ce21e0000008360095461132091906119ab565b61132a9190611e6d565b90508060098190555060096004541015611394576004600081548092919061135190611ea1565b91905055507f1860f7886c2715384488b63210a776f6cc1baeacc9112bb472e4e23530f6a9876004546040516113879190611717565b60405180910390a16113b0565b6000600a60006101000a81548160ff0219169083151502179055505b506113d0565b81600960008282546113c891906119ab565b925050819055505b81600560008282546113e291906119ab565b9250508190555081600b60008573ffffffffffffffffffffffffffffffffffffffff1673ffffffffffffffffffffffffffffffffffffffff168152602001908152602001600020600082825461143891906119ab565b92505081905550600073ffffffffffffffffffffffffffffffffffffffff168173ffffffffffffffffffffffffffffffffffffffff16141580156114a857508273ffffffffffffffffffffffffffffffffffffffff168173ffffffffffffffffffffffffffffffffffffffff1614155b156115975760006114b7610bc9565b90506000606482856114c99190611bf7565b6114d39190611c68565b905080600c60008573ffffffffffffffffffffffffffffffffffffffff1673ffffffffffffffffffffffffffffffffffffffff168152602001908152602001600020600082825461152491906119ab565b925050819055508473ffffffffffffffffffffffffffffffffffffffff168373ffffffffffffffffffffffffffffffffffffffff167f65db98422e8b7340e0d6dfa99bbadd4ba95a51fefafd8f0e1cbbb2e819429a428360045460405161158c929190611ee9565b60405180910390a350505b505050565b611618848573ffffffffffffffffffffffffffffffffffffffff166323b872dd8686866040516024016115d193929190611f12565b604051602081830303815290604052915060e01b6020820180517bffffffffffffffffffffffffffffffffffffffffffffffffffffffff838183161783525050505061161e565b50505050565b600080602060008451602086016000885af180611641576040513d6000823e3d81fd5b3d92506000519150506000821461165c576001811415611678565b60008473ffffffffffffffffffffffffffffffffffffffff163b145b156116ba57836040517f5274afe70000000000000000000000000000000000000000000000000000000081526004016116b191906117d1565b60405180910390fd5b50505050565b600033905090565b60008115159050919050565b6116dd816116c8565b82525050565b60006020820190506116f860008301846116d4565b92915050565b6000819050919050565b611711816116fe565b82525050565b600060208201905061172c6000830184611708565b92915050565b600080fd5b600073ffffffffffffffffffffffffffffffffffffffff82169050919050565b600061176282611737565b9050919050565b61177281611757565b811461177d57600080fd5b50565b60008135905061178f81611769565b92915050565b6000602082840312156117ab576117aa611732565b5b60006117b984828501611780565b91505092915050565b6117cb81611757565b82525050565b60006020820190506117e660008301846117c2565b92915050565b6000819050919050565b600061181161180c61180784611737565b6117ec565b611737565b9050919050565b6000611823826117f6565b9050919050565b600061183582611818565b9050919050565b6118458161182a565b82525050565b6000602082019050611860600083018461183c565b92915050565b61186f816116fe565b811461187a57600080fd5b50565b60008135905061188c81611866565b92915050565b6000602082840312156118a8576118a7611732565b5b60006118b68482850161187d565b91505092915050565b600080604083850312156118d6576118d5611732565b5b60006118e48582860161187d565b92505060206118f585828601611780565b9150509250929050565b600082825260208201905092915050565b7f436c61696d696e67206e6f742061637469766500000000000000000000000000600082015250565b60006119466013836118ff565b915061195182611910565b602082019050919050565b6000602082019050818103600083015261197581611939565b9050919050565b7f4e487b7100000000000000000000000000000000000000000000000000000000600052601160045260246000fd5b60006119b6826116fe565b91506119c1836116fe565b92508282019050808211156119d9576119d861197c565b5b92915050565b7f526566657272616c2072657761726473206c6f636b656420666f72203330206460008201527f6179730000000000000000000000000000000000000000000000000000000000602082015250565b6000611a3b6023836118ff565b9150611a46826119df565b604082019050919050565b60006020820190508181036000830152611a6a81611a2e565b9050919050565b7f4e6f207265776172647300000000000000000000000000000000000000000000600082015250565b6000611aa7600a836118ff565b9150611ab282611a71565b602082019050919050565b60006020820190508181036000830152611ad681611a9a565b9050919050565b600081519050611aec81611866565b92915050565b600060208284031215611b0857611b07611732565b5b6000611b1684828501611add565b91505092915050565b7f4e6f7468696e6720746f20636c61696d00000000000000000000000000000000600082015250565b6000611b556010836118ff565b9150611b6082611b1f565b602082019050919050565b60006020820190508181036000830152611b8481611b48565b9050919050565b7f50726573616c6520656e64656400000000000000000000000000000000000000600082015250565b6000611bc1600d836118ff565b9150611bcc82611b8b565b602082019050919050565b60006020820190508181036000830152611bf081611bb4565b9050919050565b6000611c02826116fe565b9150611c0d836116fe565b9250828202611c1b816116fe565b91508282048414831517611c3257611c3161197c565b5b5092915050565b7f4e487b7100000000000000000000000000000000000000000000000000000000600052601260045260246000fd5b6000611c73826116fe565b9150611c7e836116fe565b925082611c8e57611c8d611c39565b5b828204905092915050565b7f42656c6f77204d696e696d756d20427579000000000000000000000000000000600082015250565b6000611ccf6011836118ff565b9150611cda82611c99565b602082019050919050565b60006020820190508181036000830152611cfe81611cc2565b9050919050565b7f424e420000000000000000000000000000000000000000000000000000000000600082015250565b6000611d3b6003836118ff565b9150611d4682611d05565b602082019050919050565b6000606082019050611d666000830185611708565b611d736020830184611708565b8181036040830152611d8481611d2e565b90509392505050565b7f5553445400000000000000000000000000000000000000000000000000000000600082015250565b6000611dc36004836118ff565b9150611dce82611d8d565b602082019050919050565b6000606082019050611dee6000830185611708565b611dfb6020830184611708565b8181036040830152611e0c81611db6565b90509392505050565b7f4e487b7100000000000000000000000000000000000000000000000000000000600052603260045260246000fd5b6000604082019050611e5960008301856117c2565b611e666020830184611708565b9392505050565b6000611e78826116fe565b9150611e83836116fe565b9250828203905081811115611e9b57611e9a61197c565b5b92915050565b6000611eac826116fe565b91507fffffffffffffffffffffffffffffffffffffffffffffffffffffffffffffffff8203611ede57611edd61197c565b5b600182019050919050565b6000604082019050611efe6000830185611708565b611f0b6020830184611708565b9392505050565b6000606082019050611f2760008301866117c2565b611f3460208301856117c2565b611f416040830184611708565b94935050505056fea2646970667358221220c534ad19c76fcfe6e89eeb56651f426de88c6b938d07b289a5accf42467d426c64736f6c63430008140033",
  "linkReferences": {},
  "deployedLinkReferences": {}
}